{
  "_format": "hh-sol-artifact-1",
  "contractName": "AuthManager",
  "sourceName": "contracts/AuthManager.sol",
  "abi": [
    {
      "inputs": [],
      "stateMutability": "nonpayable",
      "type": "constructor"
    },
    {
      "inputs": [],
      "name": "EnforcedPause",
      "type": "error"
    },
    {
      "inputs": [],
      "name": "ExpectedPause",
      "type": "error"
    },
    {
      "inputs": [
        {
          "internalType": "address",
          "name": "owner",
          "type": "address"
        }
      ],
      "name": "OwnableInvalidOwner",
      "type": "error"
    },
    {
      "inputs": [
        {
          "internalType": "address",
          "name": "account",
          "type": "address"
        }
      ],
      "name": "OwnableUnauthorizedAccount",
      "type": "error"
    },
    {
      "anonymous": false,
      "inputs": [
        {
          "indexed": true,
          "internalType": "address",
          "name": "userAddress",
          "type": "address"
        },
        {
          "indexed": false,
          "internalType": "bool",
          "name": "isAdmin",
          "type": "bool"
        }
      ],
      "name": "AdminStatusChanged",
      "type": "event"
    },
    {
      "anonymous": false,
      "inputs": [
        {
          "indexed": true,
          "internalType": "address",
          "name": "previousOwner",
          "type": "address"
        },
        {
          "indexed": true,
          "internalType": "address",
          "name": "newOwner",
          "type": "address"
        }
      ],
      "name": "OwnershipTransferred",
      "type": "event"
    },
    {
      "anonymous": false,
      "inputs": [
        {
          "indexed": false,
          "internalType": "address",
          "name": "account",
          "type": "address"
        }
      ],
      "name": "Paused",
      "type": "event"
    },
    {
      "anonymous": false,
      "inputs": [
        {
          "indexed": false,
          "internalType": "address",
          "name": "account",
          "type": "address"
        }
      ],
      "name": "Unpaused",
      "type": "event"
    },
    {
      "anonymous": false,
      "inputs": [
        {
          "indexed": true,
          "internalType": "address",
          "name": "userAddress",
          "type": "address"
        },
        {
          "indexed": false,
          "internalType": "string",
          "name": "username",
          "type": "string"
        },
        {
          "indexed": false,
          "internalType": "bool",
          "name": "isAdmin",
          "type": "bool"
        }
      ],
      "name": "UserRegistered",
      "type": "event"
    },
    {
      "anonymous": false,
      "inputs": [
        {
          "indexed": true,
          "internalType": "address",
          "name": "userAddress",
          "type": "address"
        },
        {
          "indexed": false,
          "internalType": "string",
          "name": "username",
          "type": "string"
        }
      ],
      "name": "UserUpdated",
      "type": "event"
    },
    {
      "inputs": [],
      "name": "getUserCount",
      "outputs": [
        {
          "internalType": "uint256",
          "name": "",
          "type": "uint256"
        }
      ],
      "stateMutability": "view",
      "type": "function"
    },
    {
      "inputs": [
        {
          "internalType": "address",
          "name": "userAddress",
          "type": "address"
        }
      ],
      "name": "getUserDetails",
      "outputs": [
        {
          "internalType": "string",
          "name": "username",
          "type": "string"
        },
        {
          "internalType": "bool",
          "name": "isAdmin",
          "type": "bool"
        },
        {
          "internalType": "uint256",
          "name": "registeredAt",
          "type": "uint256"
        }
      ],
      "stateMutability": "view",
      "type": "function"
    },
    {
      "inputs": [
        {
          "internalType": "address",
          "name": "userAddress",
          "type": "address"
        }
      ],
      "name": "isAdmin",
      "outputs": [
        {
          "internalType": "bool",
          "name": "",
          "type": "bool"
        }
      ],
      "stateMutability": "view",
      "type": "function"
    },
    {
      "inputs": [
        {
          "internalType": "address",
          "name": "userAddress",
          "type": "address"
        }
      ],
      "name": "isRegistered",
      "outputs": [
        {
          "internalType": "bool",
          "name": "",
          "type": "bool"
        }
      ],
      "stateMutability": "view",
      "type": "function"
    },
    {
      "inputs": [],
      "name": "owner",
      "outputs": [
        {
          "internalType": "address",
          "name": "",
          "type": "address"
        }
      ],
      "stateMutability": "view",
      "type": "function"
    },
    {
      "inputs": [],
      "name": "pause",
      "outputs": [],
      "stateMutability": "nonpayable",
      "type": "function"
    },
    {
      "inputs": [],
      "name": "paused",
      "outputs": [
        {
          "internalType": "bool",
          "name": "",
          "type": "bool"
        }
      ],
      "stateMutability": "view",
      "type": "function"
    },
    {
      "inputs": [
        {
          "internalType": "string",
          "name": "username",
          "type": "string"
        },
        {
          "internalType": "bytes32",
          "name": "passwordHash",
          "type": "bytes32"
        }
      ],
      "name": "register",
      "outputs": [],
      "stateMutability": "nonpayable",
      "type": "function"
    },
    {
      "inputs": [
        {
          "internalType": "uint256",
          "name": "",
          "type": "uint256"
        }
      ],
      "name": "registeredUsers",
      "outputs": [
        {
          "internalType": "address",
          "name": "",
          "type": "address"
        }
      ],
      "stateMutability": "view",
      "type": "function"
    },
    {
      "inputs": [],
      "name": "renounceOwnership",
      "outputs": [],
      "stateMutability": "nonpayable",
      "type": "function"
    },
    {
      "inputs": [
        {
          "internalType": "address",
          "name": "userAddress",
          "type": "address"
        },
        {
          "internalType": "bool",
          "name": "isAdmin",
          "type": "bool"
        }
      ],
      "name": "setAdminStatus",
      "outputs": [],
      "stateMutability": "nonpayable",
      "type": "function"
    },
    {
      "inputs": [
        {
          "internalType": "address",
          "name": "newOwner",
          "type": "address"
        }
      ],
      "name": "transferOwnership",
      "outputs": [],
      "stateMutability": "nonpayable",
      "type": "function"
    },
    {
      "inputs": [],
      "name": "unpause",
      "outputs": [],
      "stateMutability": "nonpayable",
      "type": "function"
    },
    {
      "inputs": [
        {
          "internalType": "bytes32",
          "name": "newPasswordHash",
          "type": "bytes32"
        },
        {
          "internalType": "bytes32",
          "name": "currentPasswordHash",
          "type": "bytes32"
        }
      ],
      "name": "updatePassword",
      "outputs": [],
      "stateMutability": "nonpayable",
      "type": "function"
    },
    {
      "inputs": [
        {
          "internalType": "address",
          "name": "",
          "type": "address"
        }
      ],
      "name": "users",
      "outputs": [
        {
          "internalType": "bool",
          "name": "isRegistered",
          "type": "bool"
        },
        {
          "internalType": "bool",
          "name": "isAdmin",
          "type": "bool"
        },
        {
          "internalType": "string",
          "name": "username",
          "type": "string"
        },
        {
          "internalType": "bytes32",
          "name": "passwordHash",
          "type": "bytes32"
        },
        {
          "internalType": "uint256",
          "name": "registeredAt",
          "type": "uint256"
        }
      ],
      "stateMutability": "view",
      "type": "function"
    },
    {
      "inputs": [
        {
          "internalType": "address",
          "name": "userAddress",
          "type": "address"
        },
        {
          "internalType": "bytes32",
          "name": "passwordHash",
          "type": "bytes32"
        }
      ],
      "name": "verifyCredentials",
      "outputs": [
        {
          "internalType": "bool",
          "name": "",
          "type": "bool"
        }
      ],
      "stateMutability": "view",
      "type": "function"
    }
  ],
  "bytecode": "0x60806040523480156200001157600080fd5b5033600073ffffffffffffffffffffffffffffffffffffffff168173ffffffffffffffffffffffffffffffffffffffff1603620000885760006040517f1e4fbdf70000000000000000000000000000000000000000000000000000000081526004016200007f9190620003ae565b60405180910390fd5b62000099816200011060201b60201c565b506200010a336040518060400160405280600581526020017f61646d696e000000000000000000000000000000000000000000000000000000815250604051602001620000e69062000426565b604051602081830303815290604052805190602001206001620001d460201b60201c565b6200087e565b60008060009054906101000a900473ffffffffffffffffffffffffffffffffffffffff169050816000806101000a81548173ffffffffffffffffffffffffffffffffffffffff021916908373ffffffffffffffffffffffffffffffffffffffff1602179055508173ffffffffffffffffffffffffffffffffffffffff168173ffffffffffffffffffffffffffffffffffffffff167f8be0079c531659141344cd1fd0a4f28419497f9722a3daafe3b4186f6b6457e060405160405180910390a35050565b6040518060a00160405280600115158152602001821515815260200184815260200183815260200142815250600160008673ffffffffffffffffffffffffffffffffffffffff1673ffffffffffffffffffffffffffffffffffffffff16815260200190815260200160002060008201518160000160006101000a81548160ff02191690831515021790555060208201518160000160016101000a81548160ff0219169083151502179055506040820151816001019081620002969190620006b7565b5060608201518160020155608082015181600301559050506002849080600181540180825580915050600190039060005260206000200160009091909190916101000a81548173ffffffffffffffffffffffffffffffffffffffff021916908373ffffffffffffffffffffffffffffffffffffffff1602179055508373ffffffffffffffffffffffffffffffffffffffff167f0b2d2fe99b0620e0994de6f522eb19dcc5b5fd39b27be67cea0547c4ed9dbdfc84836040516200035b9291906200084a565b60405180910390a250505050565b600073ffffffffffffffffffffffffffffffffffffffff82169050919050565b6000620003968262000369565b9050919050565b620003a88162000389565b82525050565b6000602082019050620003c560008301846200039d565b92915050565b600081905092915050565b7f61646d696e000000000000000000000000000000000000000000000000000000600082015250565b60006200040e600583620003cb565b91506200041b82620003d6565b600582019050919050565b60006200043382620003ff565b9150819050919050565b600081519050919050565b7f4e487b7100000000000000000000000000000000000000000000000000000000600052604160045260246000fd5b7f4e487b7100000000000000000000000000000000000000000000000000000000600052602260045260246000fd5b60006002820490506001821680620004bf57607f821691505b602082108103620004d557620004d462000477565b5b50919050565b60008190508160005260206000209050919050565b60006020601f8301049050919050565b600082821b905092915050565b6000600883026200053f7fffffffffffffffffffffffffffffffffffffffffffffffffffffffffffffffff8262000500565b6200054b868362000500565b95508019841693508086168417925050509392505050565b6000819050919050565b6000819050919050565b600062000598620005926200058c8462000563565b6200056d565b62000563565b9050919050565b6000819050919050565b620005b48362000577565b620005cc620005c3826200059f565b8484546200050d565b825550505050565b600090565b620005e3620005d4565b620005f0818484620005a9565b505050565b5b8181101562000618576200060c600082620005d9565b600181019050620005f6565b5050565b601f82111562000667576200063181620004db565b6200063c84620004f0565b810160208510156200064c578190505b620006646200065b85620004f0565b830182620005f5565b50505b505050565b600082821c905092915050565b60006200068c600019846008026200066c565b1980831691505092915050565b6000620006a7838362000679565b9150826002028217905092915050565b620006c2826200043d565b67ffffffffffffffff811115620006de57620006dd62000448565b5b620006ea8254620004a6565b620006f78282856200061c565b600060209050601f8311600181146200072f57600084156200071a578287015190505b62000726858262000699565b86555062000796565b601f1984166200073f86620004db565b60005b82811015620007695784890151825560018201915060208501945060208101905062000742565b8683101562000789578489015162000785601f89168262000679565b8355505b6001600288020188555050505b505050505050565b600082825260208201905092915050565b60005b83811015620007cf578082015181840152602081019050620007b2565b60008484015250505050565b6000601f19601f8301169050919050565b6000620007f9826200043d565b6200080581856200079e565b935062000817818560208601620007af565b6200082281620007db565b840191505092915050565b60008115159050919050565b62000844816200082d565b82525050565b60006040820190508181036000830152620008668185620007ec565b905062000877602083018462000839565b9392505050565b611b5a806200088e6000396000f3fe608060405234801561001057600080fd5b50600436106101005760003560e01c80638456cb5911610097578063c3c5a54711610066578063c3c5a54714610279578063cc3d967b146102a9578063f2fde38b146102db578063f79c7fc2146102f757610100565b80638456cb59146101ff5780638da5cb5b14610209578063a87430ba14610227578063b5cb15f71461025b57610100565b8063656afdee116100d3578063656afdee14610179578063715018a6146101955780637259e0f81461019f57806373292874146101cf57610100565b806324d7806c146101055780633f4ba83a146101355780634f5bee441461013f5780635c975abb1461015b575b600080fd5b61011f600480360381019061011a919061108a565b610313565b60405161012c91906110d2565b60405180910390f35b61013d61036c565b005b61015960048036038101906101549190611119565b61037e565b005b6101636104c1565b60405161017091906110d2565b60405180910390f35b610193600480360381019061018e91906112d5565b6104d7565b005b61019d6105bc565b005b6101b960048036038101906101b49190611367565b6105d0565b6040516101c691906113a3565b60405180910390f35b6101e960048036038101906101e491906113be565b61060f565b6040516101f691906110d2565b60405180910390f35b6102076106b6565b005b6102116106c8565b60405161021e91906113a3565b60405180910390f35b610241600480360381019061023c919061108a565b6106f1565b60405161025295949392919061149b565b60405180910390f35b6102636107c9565b60405161027091906114f5565b60405180910390f35b610293600480360381019061028e919061108a565b6107d6565b6040516102a091906110d2565b60405180910390f35b6102c360048036038101906102be919061108a565b61082f565b6040516102d293929190611510565b60405180910390f35b6102f560048036038101906102f0919061108a565b610a0a565b005b610311600480360381019061030c919061154e565b610a90565b005b6000600160008373ffffffffffffffffffffffffffffffffffffffff1673ffffffffffffffffffffffffffffffffffffffff16815260200190815260200160002060000160019054906101000a900460ff169050919050565b610374610bee565b61037c610c75565b565b610386610bee565b600160008373ffffffffffffffffffffffffffffffffffffffff1673ffffffffffffffffffffffffffffffffffffffff16815260200190815260200160002060000160009054906101000a900460ff16610415576040517f08c379a000000000000000000000000000000000000000000000000000000000815260040161040c906115da565b60405180910390fd5b80600160008473ffffffffffffffffffffffffffffffffffffffff1673ffffffffffffffffffffffffffffffffffffffff16815260200190815260200160002060000160016101000a81548160ff0219169083151502179055508173ffffffffffffffffffffffffffffffffffffffff167fc63c72d6995119c079ef24c02679d49838905c8e81df9e632011b914e6f592f6826040516104b591906110d2565b60405180910390a25050565b60008060149054906101000a900460ff16905090565b600160003373ffffffffffffffffffffffffffffffffffffffff1673ffffffffffffffffffffffffffffffffffffffff16815260200190815260200160002060000160009054906101000a900460ff1615610567576040517f08c379a000000000000000000000000000000000000000000000000000000000815260040161055e90611646565b60405180910390fd5b60008251116105ab576040517f08c379a00000000000000000000000000000000000000000000000000000000081526004016105a2906116b2565b60405180910390fd5b6105b83383836000610cd7565b5050565b6105c4610bee565b6105ce6000610e68565b565b600281815481106105e057600080fd5b906000526020600020016000915054906101000a900473ffffffffffffffffffffffffffffffffffffffff1681565b6000600160008473ffffffffffffffffffffffffffffffffffffffff1673ffffffffffffffffffffffffffffffffffffffff16815260200190815260200160002060000160009054906101000a900460ff1680156106ae575081600160008573ffffffffffffffffffffffffffffffffffffffff1673ffffffffffffffffffffffffffffffffffffffff16815260200190815260200160002060020154145b905092915050565b6106be610bee565b6106c6610f2c565b565b60008060009054906101000a900473ffffffffffffffffffffffffffffffffffffffff16905090565b60016020528060005260406000206000915090508060000160009054906101000a900460ff16908060000160019054906101000a900460ff169080600101805461073a90611701565b80601f016020809104026020016040519081016040528092919081815260200182805461076690611701565b80156107b35780601f10610788576101008083540402835291602001916107b3565b820191906000526020600020905b81548152906001019060200180831161079657829003601f168201915b5050505050908060020154908060030154905085565b6000600280549050905090565b6000600160008373ffffffffffffffffffffffffffffffffffffffff1673ffffffffffffffffffffffffffffffffffffffff16815260200190815260200160002060000160009054906101000a900460ff169050919050565b6060600080600160008573ffffffffffffffffffffffffffffffffffffffff1673ffffffffffffffffffffffffffffffffffffffff16815260200190815260200160002060000160009054906101000a900460ff166108c3576040517f08c379a00000000000000000000000000000000000000000000000000000000081526004016108ba9061177e565b60405180910390fd5b6000600160008673ffffffffffffffffffffffffffffffffffffffff1673ffffffffffffffffffffffffffffffffffffffff1681526020019081526020016000206040518060a00160405290816000820160009054906101000a900460ff161515151581526020016000820160019054906101000a900460ff1615151515815260200160018201805461095590611701565b80601f016020809104026020016040519081016040528092919081815260200182805461098190611701565b80156109ce5780601f106109a3576101008083540402835291602001916109ce565b820191906000526020600020905b8154815290600101906020018083116109b157829003601f168201915b50505050508152602001600282015481526020016003820154815250509050806040015181602001518260800151935093509350509193909250565b610a12610bee565b600073ffffffffffffffffffffffffffffffffffffffff168173ffffffffffffffffffffffffffffffffffffffff1603610a845760006040517f1e4fbdf7000000000000000000000000000000000000000000000000000000008152600401610a7b91906113a3565b60405180910390fd5b610a8d81610e68565b50565b600160003373ffffffffffffffffffffffffffffffffffffffff1673ffffffffffffffffffffffffffffffffffffffff16815260200190815260200160002060000160009054906101000a900460ff16610b1f576040517f08c379a0000000000000000000000000000000000000000000000000000000008152600401610b16906117ea565b60405180910390fd5b80600160003373ffffffffffffffffffffffffffffffffffffffff1673ffffffffffffffffffffffffffffffffffffffff1681526020019081526020016000206002015414610ba3576040517f08c379a0000000000000000000000000000000000000000000000000000000008152600401610b9a90611856565b60405180910390fd5b81600160003373ffffffffffffffffffffffffffffffffffffffff1673ffffffffffffffffffffffffffffffffffffffff168152602001908152602001600020600201819055505050565b610bf6610f8f565b73ffffffffffffffffffffffffffffffffffffffff16610c146106c8565b73ffffffffffffffffffffffffffffffffffffffff1614610c7357610c37610f8f565b6040517f118cdaa7000000000000000000000000000000000000000000000000000000008152600401610c6a91906113a3565b60405180910390fd5b565b610c7d610f97565b60008060146101000a81548160ff0219169083151502179055507f5db9ee0a495bf2e6ff9c91a7834c1ba4fdd244a5e8aa4e537bd38aeae4b073aa610cc0610f8f565b604051610ccd91906113a3565b60405180910390a1565b6040518060a00160405280600115158152602001821515815260200184815260200183815260200142815250600160008673ffffffffffffffffffffffffffffffffffffffff1673ffffffffffffffffffffffffffffffffffffffff16815260200190815260200160002060008201518160000160006101000a81548160ff02191690831515021790555060208201518160000160016101000a81548160ff0219169083151502179055506040820151816001019081610d979190611a22565b5060608201518160020155608082015181600301559050506002849080600181540180825580915050600190039060005260206000200160009091909190916101000a81548173ffffffffffffffffffffffffffffffffffffffff021916908373ffffffffffffffffffffffffffffffffffffffff1602179055508373ffffffffffffffffffffffffffffffffffffffff167f0b2d2fe99b0620e0994de6f522eb19dcc5b5fd39b27be67cea0547c4ed9dbdfc8483604051610e5a929190611af4565b60405180910390a250505050565b60008060009054906101000a900473ffffffffffffffffffffffffffffffffffffffff169050816000806101000a81548173ffffffffffffffffffffffffffffffffffffffff021916908373ffffffffffffffffffffffffffffffffffffffff1602179055508173ffffffffffffffffffffffffffffffffffffffff168173ffffffffffffffffffffffffffffffffffffffff167f8be0079c531659141344cd1fd0a4f28419497f9722a3daafe3b4186f6b6457e060405160405180910390a35050565b610f34610fd7565b6001600060146101000a81548160ff0219169083151502179055507f62e78cea01bee320cd4e420270b5ea74000d11b0c9f74754ebdbfc544b05a258610f78610f8f565b604051610f8591906113a3565b60405180910390a1565b600033905090565b610f9f6104c1565b610fd5576040517f8dfc202b00000000000000000000000000000000000000000000000000000000815260040160405180910390fd5b565b610fdf6104c1565b15611016576040517fd93c066500000000000000000000000000000000000000000000000000000000815260040160405180910390fd5b565b6000604051905090565b600080fd5b600080fd5b600073ffffffffffffffffffffffffffffffffffffffff82169050919050565b60006110578261102c565b9050919050565b6110678161104c565b811461107257600080fd5b50565b6000813590506110848161105e565b92915050565b6000602082840312156110a05761109f611022565b5b60006110ae84828501611075565b91505092915050565b60008115159050919050565b6110cc816110b7565b82525050565b60006020820190506110e760008301846110c3565b92915050565b6110f6816110b7565b811461110157600080fd5b50565b600081359050611113816110ed565b92915050565b600080604083850312156111305761112f611022565b5b600061113e85828601611075565b925050602061114f85828601611104565b9150509250929050565b600080fd5b600080fd5b6000601f19601f8301169050919050565b7f4e487b7100000000000000000000000000000000000000000000000000000000600052604160045260246000fd5b6111ac82611163565b810181811067ffffffffffffffff821117156111cb576111ca611174565b5b80604052505050565b60006111de611018565b90506111ea82826111a3565b919050565b600067ffffffffffffffff82111561120a57611209611174565b5b61121382611163565b9050602081019050919050565b82818337600083830152505050565b600061124261123d846111ef565b6111d4565b90508281526020810184848401111561125e5761125d61115e565b5b611269848285611220565b509392505050565b600082601f83011261128657611285611159565b5b813561129684826020860161122f565b91505092915050565b6000819050919050565b6112b28161129f565b81146112bd57600080fd5b50565b6000813590506112cf816112a9565b92915050565b600080604083850312156112ec576112eb611022565b5b600083013567ffffffffffffffff81111561130a57611309611027565b5b61131685828601611271565b9250506020611327858286016112c0565b9150509250929050565b6000819050919050565b61134481611331565b811461134f57600080fd5b50565b6000813590506113618161133b565b92915050565b60006020828403121561137d5761137c611022565b5b600061138b84828501611352565b91505092915050565b61139d8161104c565b82525050565b60006020820190506113b86000830184611394565b92915050565b600080604083850312156113d5576113d4611022565b5b60006113e385828601611075565b92505060206113f4858286016112c0565b9150509250929050565b600081519050919050565b600082825260208201905092915050565b60005b8381101561143857808201518184015260208101905061141d565b60008484015250505050565b600061144f826113fe565b6114598185611409565b935061146981856020860161141a565b61147281611163565b840191505092915050565b6114868161129f565b82525050565b61149581611331565b82525050565b600060a0820190506114b060008301886110c3565b6114bd60208301876110c3565b81810360408301526114cf8186611444565b90506114de606083018561147d565b6114eb608083018461148c565b9695505050505050565b600060208201905061150a600083018461148c565b92915050565b6000606082019050818103600083015261152a8186611444565b905061153960208301856110c3565b611546604083018461148c565b949350505050565b6000806040838503121561156557611564611022565b5b6000611573858286016112c0565b9250506020611584858286016112c0565b9150509250929050565b7f55736572206e6f74207265676973746572656400000000000000000000000000600082015250565b60006115c4601383611409565b91506115cf8261158e565b602082019050919050565b600060208201905081810360008301526115f3816115b7565b9050919050565b7f416c726561647920726567697374657265640000000000000000000000000000600082015250565b6000611630601283611409565b915061163b826115fa565b602082019050919050565b6000602082019050818103600083015261165f81611623565b9050919050565b7f557365726e616d65207265717569726564000000000000000000000000000000600082015250565b600061169c601183611409565b91506116a782611666565b602082019050919050565b600060208201905081810360008301526116cb8161168f565b9050919050565b7f4e487b7100000000000000000000000000000000000000000000000000000000600052602260045260246000fd5b6000600282049050600182168061171957607f821691505b60208210810361172c5761172b6116d2565b5b50919050565b7f55736572206e6f7420666f756e64000000000000000000000000000000000000600082015250565b6000611768600e83611409565b915061177382611732565b602082019050919050565b600060208201905081810360008301526117978161175b565b9050919050565b7f4e6f742072656769737465726564000000000000000000000000000000000000600082015250565b60006117d4600e83611409565b91506117df8261179e565b602082019050919050565b60006020820190508181036000830152611803816117c7565b9050919050565b7f496e76616c69642063757272656e742070617373776f72640000000000000000600082015250565b6000611840601883611409565b915061184b8261180a565b602082019050919050565b6000602082019050818103600083015261186f81611833565b9050919050565b60008190508160005260206000209050919050565b60006020601f8301049050919050565b600082821b905092915050565b6000600883026118d87fffffffffffffffffffffffffffffffffffffffffffffffffffffffffffffffff8261189b565b6118e2868361189b565b95508019841693508086168417925050509392505050565b6000819050919050565b600061191f61191a61191584611331565b6118fa565b611331565b9050919050565b6000819050919050565b61193983611904565b61194d61194582611926565b8484546118a8565b825550505050565b600090565b611962611955565b61196d818484611930565b505050565b5b818110156119915761198660008261195a565b600181019050611973565b5050565b601f8211156119d6576119a781611876565b6119b08461188b565b810160208510156119bf578190505b6119d36119cb8561188b565b830182611972565b50505b505050565b600082821c905092915050565b60006119f9600019846008026119db565b1980831691505092915050565b6000611a1283836119e8565b9150826002028217905092915050565b611a2b826113fe565b67ffffffffffffffff811115611a4457611a43611174565b5b611a4e8254611701565b611a59828285611995565b600060209050601f831160018114611a8c5760008415611a7a578287015190505b611a848582611a06565b865550611aec565b601f198416611a9a86611876565b60005b82811015611ac257848901518255600182019150602085019450602081019050611a9d565b86831015611adf5784890151611adb601f8916826119e8565b8355505b6001600288020188555050505b505050505050565b60006040820190508181036000830152611b0e8185611444565b9050611b1d60208301846110c3565b939250505056fea26469706673582212206d6849f9043244a907655856f79eb28b53d915c5231bb634251be40fa6c6150264736f6c63430008140033",
  "linkReferences": {},
  "deployedLinkReferences": {}
}