{
  "_format": "hh-sol-artifact-1",
  "contractName": "VotingContract",
  "sourceName": "contracts/VotingContract.sol",
  "abi": [
    {
      "inputs": [],
      "stateMutability": "nonpayable",
      "type": "constructor"
    },
    {
      "inputs": [
        {
          "internalType": "address",
          "name": "owner",
          "type": "address"
        }
      ],
      "name": "OwnableInvalidOwner",
      "type": "error"
    },
    {
      "inputs": [
        {
          "internalType": "address",
          "name": "account",
          "type": "address"
        }
      ],
      "name": "OwnableUnauthorizedAccount",
      "type": "error"
    },
    {
      "anonymous": false,
      "inputs": [
        {
          "indexed": true,
          "internalType": "uint256",
          "name": "id",
          "type": "uint256"
        },
        {
          "indexed": false,
          "internalType": "string",
          "name": "name",
          "type": "string"
        },
        {
          "indexed": false,
          "internalType": "string",
          "name": "imageCID",
          "type": "string"
        }
      ],
      "name": "CandidateAdded",
      "type": "event"
    },
    {
      "anonymous": false,
      "inputs": [
        {
          "indexed": true,
          "internalType": "uint256",
          "name": "id",
          "type": "uint256"
        }
      ],
      "name": "CandidateRemoved",
      "type": "event"
    },
    {
      "anonymous": false,
      "inputs": [
        {
          "indexed": false,
          "internalType": "uint256",
          "name": "endTimestamp",
          "type": "uint256"
        }
      ],
      "name": "ElectionEnded",
      "type": "event"
    },
    {
      "anonymous": false,
      "inputs": [
        {
          "indexed": false,
          "internalType": "uint256",
          "name": "startTimestamp",
          "type": "uint256"
        },
        {
          "indexed": false,
          "internalType": "uint256",
          "name": "endTimestamp",
          "type": "uint256"
        }
      ],
      "name": "ElectionStarted",
      "type": "event"
    },
    {
      "anonymous": false,
      "inputs": [
        {
          "indexed": true,
          "internalType": "address",
          "name": "oldOrganizer",
          "type": "address"
        },
        {
          "indexed": true,
          "internalType": "address",
          "name": "newOrganizer",
          "type": "address"
        }
      ],
      "name": "OrganizerChanged",
      "type": "event"
    },
    {
      "anonymous": false,
      "inputs": [
        {
          "indexed": true,
          "internalType": "address",
          "name": "previousOwner",
          "type": "address"
        },
        {
          "indexed": true,
          "internalType": "address",
          "name": "newOwner",
          "type": "address"
        }
      ],
      "name": "OwnershipTransferred",
      "type": "event"
    },
    {
      "anonymous": false,
      "inputs": [
        {
          "indexed": true,
          "internalType": "address",
          "name": "voter",
          "type": "address"
        },
        {
          "indexed": true,
          "internalType": "uint256",
          "name": "candidateId",
          "type": "uint256"
        }
      ],
      "name": "VoteCast",
      "type": "event"
    },
    {
      "inputs": [
        {
          "internalType": "string",
          "name": "name",
          "type": "string"
        },
        {
          "internalType": "string",
          "name": "imageCID",
          "type": "string"
        }
      ],
      "name": "addCandidate",
      "outputs": [],
      "stateMutability": "nonpayable",
      "type": "function"
    },
    {
      "inputs": [
        {
          "internalType": "address",
          "name": "newOrganizer",
          "type": "address"
        }
      ],
      "name": "changeOrganizer",
      "outputs": [],
      "stateMutability": "nonpayable",
      "type": "function"
    },
    {
      "inputs": [],
      "name": "electionEndTimestamp",
      "outputs": [
        {
          "internalType": "uint256",
          "name": "",
          "type": "uint256"
        }
      ],
      "stateMutability": "view",
      "type": "function"
    },
    {
      "inputs": [],
      "name": "electionStartTimestamp",
      "outputs": [
        {
          "internalType": "uint256",
          "name": "",
          "type": "uint256"
        }
      ],
      "stateMutability": "view",
      "type": "function"
    },
    {
      "inputs": [],
      "name": "electionState",
      "outputs": [
        {
          "internalType": "enum VotingContract.ElectionState",
          "name": "",
          "type": "uint8"
        }
      ],
      "stateMutability": "view",
      "type": "function"
    },
    {
      "inputs": [],
      "name": "endElection",
      "outputs": [],
      "stateMutability": "nonpayable",
      "type": "function"
    },
    {
      "inputs": [],
      "name": "getAllCandidates",
      "outputs": [
        {
          "internalType": "uint256[]",
          "name": "ids",
          "type": "uint256[]"
        },
        {
          "internalType": "string[]",
          "name": "names",
          "type": "string[]"
        },
        {
          "internalType": "string[]",
          "name": "imageCIDs",
          "type": "string[]"
        },
        {
          "internalType": "uint256[]",
          "name": "voteCounts",
          "type": "uint256[]"
        }
      ],
      "stateMutability": "view",
      "type": "function"
    },
    {
      "inputs": [
        {
          "internalType": "uint256",
          "name": "id",
          "type": "uint256"
        }
      ],
      "name": "getCandidate",
      "outputs": [
        {
          "internalType": "uint256",
          "name": "",
          "type": "uint256"
        },
        {
          "internalType": "string",
          "name": "",
          "type": "string"
        },
        {
          "internalType": "string",
          "name": "",
          "type": "string"
        },
        {
          "internalType": "uint256",
          "name": "",
          "type": "uint256"
        }
      ],
      "stateMutability": "view",
      "type": "function"
    },
    {
      "inputs": [],
      "name": "getCandidateIds",
      "outputs": [
        {
          "internalType": "uint256[]",
          "name": "",
          "type": "uint256[]"
        }
      ],
      "stateMutability": "view",
      "type": "function"
    },
    {
      "inputs": [],
      "name": "getElectionState",
      "outputs": [
        {
          "internalType": "enum VotingContract.ElectionState",
          "name": "",
          "type": "uint8"
        }
      ],
      "stateMutability": "view",
      "type": "function"
    },
    {
      "inputs": [],
      "name": "getElectionTimestamps",
      "outputs": [
        {
          "internalType": "uint256",
          "name": "startTs",
          "type": "uint256"
        },
        {
          "internalType": "uint256",
          "name": "endTs",
          "type": "uint256"
        }
      ],
      "stateMutability": "view",
      "type": "function"
    },
    {
      "inputs": [],
      "name": "getOrganizer",
      "outputs": [
        {
          "internalType": "address",
          "name": "",
          "type": "address"
        }
      ],
      "stateMutability": "view",
      "type": "function"
    },
    {
      "inputs": [
        {
          "internalType": "address",
          "name": "user",
          "type": "address"
        }
      ],
      "name": "getVotedCandidateId",
      "outputs": [
        {
          "internalType": "uint256",
          "name": "",
          "type": "uint256"
        }
      ],
      "stateMutability": "view",
      "type": "function"
    },
    {
      "inputs": [
        {
          "internalType": "address",
          "name": "user",
          "type": "address"
        }
      ],
      "name": "hasVoted",
      "outputs": [
        {
          "internalType": "bool",
          "name": "",
          "type": "bool"
        }
      ],
      "stateMutability": "view",
      "type": "function"
    },
    {
      "inputs": [],
      "name": "organizer",
      "outputs": [
        {
          "internalType": "address",
          "name": "",
          "type": "address"
        }
      ],
      "stateMutability": "view",
      "type": "function"
    },
    {
      "inputs": [],
      "name": "owner",
      "outputs": [
        {
          "internalType": "address",
          "name": "",
          "type": "address"
        }
      ],
      "stateMutability": "view",
      "type": "function"
    },
    {
      "inputs": [
        {
          "internalType": "uint256",
          "name": "id",
          "type": "uint256"
        }
      ],
      "name": "removeCandidate",
      "outputs": [],
      "stateMutability": "nonpayable",
      "type": "function"
    },
    {
      "inputs": [],
      "name": "renounceOwnership",
      "outputs": [],
      "stateMutability": "nonpayable",
      "type": "function"
    },
    {
      "inputs": [
        {
          "internalType": "uint256",
          "name": "durationSeconds",
          "type": "uint256"
        }
      ],
      "name": "startElection",
      "outputs": [],
      "stateMutability": "nonpayable",
      "type": "function"
    },
    {
      "inputs": [
        {
          "internalType": "address",
          "name": "newOwner",
          "type": "address"
        }
      ],
      "name": "transferOwnership",
      "outputs": [],
      "stateMutability": "nonpayable",
      "type": "function"
    },
    {
      "inputs": [
        {
          "internalType": "uint256",
          "name": "candidateId",
          "type": "uint256"
        }
      ],
      "name": "vote",
      "outputs": [],
      "stateMutability": "nonpayable",
      "type": "function"
    }
  ],
  "bytecode": "0x60806040523480156200001157600080fd5b5033600073ffffffffffffffffffffffffffffffffffffffff168173ffffffffffffffffffffffffffffffffffffffff1603620000885760006040517f1e4fbdf70000000000000000000000000000000000000000000000000000000081526004016200007f919062000218565b60405180910390fd5b62000099816200010f60201b60201c565b5033600260006101000a81548173ffffffffffffffffffffffffffffffffffffffff021916908373ffffffffffffffffffffffffffffffffffffffff1602179055506000600260146101000a81548160ff0219169083600281111562000104576200010362000235565b5b021790555062000264565b60008060009054906101000a900473ffffffffffffffffffffffffffffffffffffffff169050816000806101000a81548173ffffffffffffffffffffffffffffffffffffffff021916908373ffffffffffffffffffffffffffffffffffffffff1602179055508173ffffffffffffffffffffffffffffffffffffffff168173ffffffffffffffffffffffffffffffffffffffff167f8be0079c531659141344cd1fd0a4f28419497f9722a3daafe3b4186f6b6457e060405160405180910390a35050565b600073ffffffffffffffffffffffffffffffffffffffff82169050919050565b60006200020082620001d3565b9050919050565b6200021281620001f3565b82525050565b60006020820190506200022f600083018462000207565b92915050565b7f4e487b7100000000000000000000000000000000000000000000000000000000600052602160045260246000fd5b61288d80620002746000396000f3fe608060405234801561001057600080fd5b50600436106101375760003560e01c80636ac5f270116100b857806391f0112b1161007c57806391f0112b146102f7578063bec0fde214610315578063c2def3b914610333578063e719ac6914610351578063f2fde38b14610381578063f869809c1461039d57610137565b80636ac5f270146102785780636d32dc4b14610297578063715018a6146102b3578063738380a8146102bd5780638da5cb5b146102d957610137565b80632e6997fe116100ff5780632e6997fe146101de57806335b8e820146101ff5780633e561bcf1461023257806359f7846814610250578063612032651461025a57610137565b80630121b93f1461013c57806309e9d7e21461015857806309eef43e146101745780632280043d146101a457806326541b56146101c2575b600080fd5b61015660048036038101906101519190611925565b6103bb565b005b610172600480360381019061016d9190611925565b610657565b005b61018e600480360381019061018991906119b0565b61088a565b60405161019b91906119f8565b60405180910390f35b6101ac6108e3565b6040516101b99190611a8a565b60405180910390f35b6101dc60048036038101906101d79190611b0a565b6108f6565b005b6101e6610bb6565b6040516101f69493929190611d9b565b60405180910390f35b61021960048036038101906102149190611925565b610f4a565b6040516102299493929190611e55565b60405180910390f35b61023a61112d565b6040516102479190611ea8565b60405180910390f35b610258611133565b005b610262611239565b60405161026f9190611ed2565b60405180910390f35b61028061125f565b60405161028e929190611eed565b60405180910390f35b6102b160048036038101906102ac9190611925565b611270565b005b6102bb6113fd565b005b6102d760048036038101906102d291906119b0565b611411565b005b6102e1611548565b6040516102ee9190611ed2565b60405180910390f35b6102ff611571565b60405161030c9190611ea8565b60405180910390f35b61031d611577565b60405161032a9190611f16565b60405180910390f35b61033b6115cf565b6040516103489190611ed2565b60405180910390f35b61036b600480360381019061036691906119b0565b6115f9565b6040516103789190611ea8565b60405180910390f35b61039b600480360381019061039691906119b0565b611645565b005b6103a56116cb565b6040516103b29190611a8a565b60405180910390f35b600160028111156103cf576103ce611a13565b5b600260149054906101000a900460ff1660028111156103f1576103f0611a13565b5b14801561040057506003544210155b801561040e57506004544211155b61044d576040517f08c379a000000000000000000000000000000000000000000000000000000000815260040161044490611f84565b60405180910390fd5b6005600082815260200190815260200160002060040160009054906101000a900460ff166104b0576040517f08c379a00000000000000000000000000000000000000000000000000000000081526004016104a790611ff0565b60405180910390fd5b600760003373ffffffffffffffffffffffffffffffffffffffff1673ffffffffffffffffffffffffffffffffffffffff16815260200190815260200160002060000160009054906101000a900460ff1615610540576040517f08c379a00000000000000000000000000000000000000000000000000000000081526004016105379061205c565b60405180910390fd5b6001600760003373ffffffffffffffffffffffffffffffffffffffff1673ffffffffffffffffffffffffffffffffffffffff16815260200190815260200160002060000160006101000a81548160ff02191690831515021790555080600760003373ffffffffffffffffffffffffffffffffffffffff1673ffffffffffffffffffffffffffffffffffffffff16815260200190815260200160002060010181905550600160056000838152602001908152602001600020600301600082825461060991906120ab565b92505081905550803373ffffffffffffffffffffffffffffffffffffffff167fa36cc2bebb74db33e9f88110a07ef56e1b31b24b4c4f51b54b1664266e29f45b60405160405180910390a350565b61065f611735565b6000600281111561067357610672611a13565b5b600260149054906101000a900460ff16600281111561069557610694611a13565b5b146106d5576040517f08c379a00000000000000000000000000000000000000000000000000000000081526004016106cc9061212b565b60405180910390fd5b6005600082815260200190815260200160002060040160009054906101000a900460ff16610738576040517f08c379a000000000000000000000000000000000000000000000000000000000815260040161072f90612197565b60405180910390fd5b600560008281526020019081526020016000206000808201600090556001820160006107649190611888565b6002820160006107749190611888565b60038201600090556004820160006101000a81549060ff0219169055505060005b6006805490508110156108595781600682815481106107b7576107b66121b7565b5b90600052602060002001540361084657600660016006805490506107db91906121e6565b815481106107ec576107eb6121b7565b5b90600052602060002001546006828154811061080b5761080a6121b7565b5b9060005260206000200181905550600680548061082b5761082a61221a565b5b60019003818190600052602060002001600090559055610859565b808061085190612249565b915050610795565b50807f294c5a9bc8a39e6e06502bc8da429980f6c7b0990d75b682c12cb8705e3ace8560405160405180910390a250565b6000600760008373ffffffffffffffffffffffffffffffffffffffff1673ffffffffffffffffffffffffffffffffffffffff16815260200190815260200160002060000160009054906101000a900460ff169050919050565b600260149054906101000a900460ff1681565b6108fe611735565b6000600281111561091257610911611a13565b5b600260149054906101000a900460ff16600281111561093457610933611a13565b5b14610974576040517f08c379a000000000000000000000000000000000000000000000000000000000815260040161096b9061212b565b60405180910390fd5b600084849050116109ba576040517f08c379a00000000000000000000000000000000000000000000000000000000081526004016109b1906122dd565b60405180910390fd5b60008282905011610a00576040517f08c379a00000000000000000000000000000000000000000000000000000000081526004016109f790612349565b60405180910390fd5b60016000815480929190610a1390612249565b9190505550600060015490506040518060a0016040528082815260200186868080601f016020809104026020016040519081016040528093929190818152602001838380828437600081840152601f19601f82011690508083019250505050505050815260200184848080601f016020809104026020016040519081016040528093929190818152602001838380828437600081840152601f19601f820116905080830192505050505050508152602001600081526020016001151581525060056000838152602001908152602001600020600082015181600001556020820151816001019081610b0491906125a4565b506040820151816002019081610b1a91906125a4565b506060820151816003015560808201518160040160006101000a81548160ff0219169083151502179055509050506006819080600181540180825580915050600190039060005260206000200160009091909190915055807fe64f834082661dd9ed89427b87edb6270fd6dad17198b0938f0edd058914c87f86868686604051610ba794939291906126b2565b60405180910390a25050505050565b606080606080600060068054905090508067ffffffffffffffff811115610be057610bdf612369565b5b604051908082528060200260200182016040528015610c0e5781602001602082028036833780820191505090505b5094508067ffffffffffffffff811115610c2b57610c2a612369565b5b604051908082528060200260200182016040528015610c5e57816020015b6060815260200190600190039081610c495790505b5093508067ffffffffffffffff811115610c7b57610c7a612369565b5b604051908082528060200260200182016040528015610cae57816020015b6060815260200190600190039081610c995790505b5092508067ffffffffffffffff811115610ccb57610cca612369565b5b604051908082528060200260200182016040528015610cf95781602001602082028036833780820191505090505b50915060005b81811015610f4257600060068281548110610d1d57610d1c6121b7565b5b906000526020600020015490506000600560008381526020019081526020016000206040518060a001604052908160008201548152602001600182018054610d64906123c7565b80601f0160208091040260200160405190810160405280929190818152602001828054610d90906123c7565b8015610ddd5780601f10610db257610100808354040283529160200191610ddd565b820191906000526020600020905b815481529060010190602001808311610dc057829003601f168201915b50505050508152602001600282018054610df6906123c7565b80601f0160208091040260200160405190810160405280929190818152602001828054610e22906123c7565b8015610e6f5780601f10610e4457610100808354040283529160200191610e6f565b820191906000526020600020905b815481529060010190602001808311610e5257829003601f168201915b50505050508152602001600382015481526020016004820160009054906101000a900460ff16151515158152505090508060000151888481518110610eb757610eb66121b7565b5b6020026020010181815250508060200151878481518110610edb57610eda6121b7565b5b60200260200101819052508060400151868481518110610efe57610efd6121b7565b5b60200260200101819052508060600151858481518110610f2157610f206121b7565b5b60200260200101818152505050508080610f3a90612249565b915050610cff565b505090919293565b6000606080600080600560008781526020019081526020016000206040518060a001604052908160008201548152602001600182018054610f8a906123c7565b80601f0160208091040260200160405190810160405280929190818152602001828054610fb6906123c7565b80156110035780601f10610fd857610100808354040283529160200191611003565b820191906000526020600020905b815481529060010190602001808311610fe657829003601f168201915b5050505050815260200160028201805461101c906123c7565b80601f0160208091040260200160405190810160405280929190818152602001828054611048906123c7565b80156110955780601f1061106a57610100808354040283529160200191611095565b820191906000526020600020905b81548152906001019060200180831161107857829003601f168201915b50505050508152602001600382015481526020016004820160009054906101000a900460ff16151515158152505090508060800151611109576040517f08c379a000000000000000000000000000000000000000000000000000000000815260040161110090611ff0565b60405180910390fd5b80600001518160200151826040015183606001519450945094509450509193509193565b60045481565b61113b611735565b6001600281111561114f5761114e611a13565b5b600260149054906101000a900460ff16600281111561117157611170611a13565b5b14801561118057506003544210155b801561118e57506004544211155b6111cd576040517f08c379a00000000000000000000000000000000000000000000000000000000081526004016111c490611f84565b60405180910390fd5b4260048190555060028060146101000a81548160ff021916908360028111156111f9576111f8611a13565b5b02179055507f562cd572b2ba3b666cd989fc4ca98419ec81e75f04528df9d9d76fdb7807ee7160045460405161122f9190611ea8565b60405180910390a1565b600260009054906101000a900473ffffffffffffffffffffffffffffffffffffffff1681565b600080600354600454915091509091565b611278611735565b6000600281111561128c5761128b611a13565b5b600260149054906101000a900460ff1660028111156112ae576112ad611a13565b5b146112ee576040517f08c379a00000000000000000000000000000000000000000000000000000000081526004016112e59061212b565b60405180910390fd5b600060068054905011611336576040517f08c379a000000000000000000000000000000000000000000000000000000000815260040161132d90612739565b60405180910390fd5b60008111611379576040517f08c379a0000000000000000000000000000000000000000000000000000000008152600401611370906127cb565b60405180910390fd5b42600381905550804261138c91906120ab565b6004819055506001600260146101000a81548160ff021916908360028111156113b8576113b7611a13565b5b02179055507fff6a30dd22f5e8b783044c7d895a6e8592b55c56f139978d44dc39daf596731f6003546004546040516113f2929190611eed565b60405180910390a150565b611405611735565b61140f60006117bc565b565b611419611735565b600073ffffffffffffffffffffffffffffffffffffffff168173ffffffffffffffffffffffffffffffffffffffff1603611488576040517f08c379a000000000000000000000000000000000000000000000000000000000815260040161147f90612837565b60405180910390fd5b8073ffffffffffffffffffffffffffffffffffffffff16600260009054906101000a900473ffffffffffffffffffffffffffffffffffffffff1673ffffffffffffffffffffffffffffffffffffffff167faa10a0fd7d28a8c382a6d7938c0ac02afc2486ceabfbb332dcc378921a87d92a60405160405180910390a380600260006101000a81548173ffffffffffffffffffffffffffffffffffffffff021916908373ffffffffffffffffffffffffffffffffffffffff16021790555050565b60008060009054906101000a900473ffffffffffffffffffffffffffffffffffffffff16905090565b60035481565b606060068054806020026020016040519081016040528092919081815260200182805480156115c557602002820191906000526020600020905b8154815260200190600101908083116115b1575b5050505050905090565b6000600260009054906101000a900473ffffffffffffffffffffffffffffffffffffffff16905090565b6000600760008373ffffffffffffffffffffffffffffffffffffffff1673ffffffffffffffffffffffffffffffffffffffff168152602001908152602001600020600101549050919050565b61164d611735565b600073ffffffffffffffffffffffffffffffffffffffff168173ffffffffffffffffffffffffffffffffffffffff16036116bf5760006040517f1e4fbdf70000000000000000000000000000000000000000000000000000000081526004016116b69190611ed2565b60405180910390fd5b6116c8816117bc565b50565b6000600160028111156116e1576116e0611a13565b5b600260149054906101000a900460ff16600281111561170357611702611a13565b5b148015611711575060045442115b1561171f5760029050611732565b600260149054906101000a900460ff1690505b90565b61173d611880565b73ffffffffffffffffffffffffffffffffffffffff1661175b611548565b73ffffffffffffffffffffffffffffffffffffffff16146117ba5761177e611880565b6040517f118cdaa70000000000000000000000000000000000000000000000000000000081526004016117b19190611ed2565b60405180910390fd5b565b60008060009054906101000a900473ffffffffffffffffffffffffffffffffffffffff169050816000806101000a81548173ffffffffffffffffffffffffffffffffffffffff021916908373ffffffffffffffffffffffffffffffffffffffff1602179055508173ffffffffffffffffffffffffffffffffffffffff168173ffffffffffffffffffffffffffffffffffffffff167f8be0079c531659141344cd1fd0a4f28419497f9722a3daafe3b4186f6b6457e060405160405180910390a35050565b600033905090565b508054611894906123c7565b6000825580601f106118a657506118c5565b601f0160209004906000526020600020908101906118c491906118c8565b5b50565b5b808211156118e15760008160009055506001016118c9565b5090565b600080fd5b600080fd5b6000819050919050565b611902816118ef565b811461190d57600080fd5b50565b60008135905061191f816118f9565b92915050565b60006020828403121561193b5761193a6118e5565b5b600061194984828501611910565b91505092915050565b600073ffffffffffffffffffffffffffffffffffffffff82169050919050565b600061197d82611952565b9050919050565b61198d81611972565b811461199857600080fd5b50565b6000813590506119aa81611984565b92915050565b6000602082840312156119c6576119c56118e5565b5b60006119d48482850161199b565b91505092915050565b60008115159050919050565b6119f2816119dd565b82525050565b6000602082019050611a0d60008301846119e9565b92915050565b7f4e487b7100000000000000000000000000000000000000000000000000000000600052602160045260246000fd5b60038110611a5357611a52611a13565b5b50565b6000819050611a6482611a42565b919050565b6000611a7482611a56565b9050919050565b611a8481611a69565b82525050565b6000602082019050611a9f6000830184611a7b565b92915050565b600080fd5b600080fd5b600080fd5b60008083601f840112611aca57611ac9611aa5565b5b8235905067ffffffffffffffff811115611ae757611ae6611aaa565b5b602083019150836001820283011115611b0357611b02611aaf565b5b9250929050565b60008060008060408587031215611b2457611b236118e5565b5b600085013567ffffffffffffffff811115611b4257611b416118ea565b5b611b4e87828801611ab4565b9450945050602085013567ffffffffffffffff811115611b7157611b706118ea565b5b611b7d87828801611ab4565b925092505092959194509250565b600081519050919050565b600082825260208201905092915050565b6000819050602082019050919050565b611bc0816118ef565b82525050565b6000611bd28383611bb7565b60208301905092915050565b6000602082019050919050565b6000611bf682611b8b565b611c008185611b96565b9350611c0b83611ba7565b8060005b83811015611c3c578151611c238882611bc6565b9750611c2e83611bde565b925050600181019050611c0f565b5085935050505092915050565b600081519050919050565b600082825260208201905092915050565b6000819050602082019050919050565b600081519050919050565b600082825260208201905092915050565b60005b83811015611caf578082015181840152602081019050611c94565b60008484015250505050565b6000601f19601f8301169050919050565b6000611cd782611c75565b611ce18185611c80565b9350611cf1818560208601611c91565b611cfa81611cbb565b840191505092915050565b6000611d118383611ccc565b905092915050565b6000602082019050919050565b6000611d3182611c49565b611d3b8185611c54565b935083602082028501611d4d85611c65565b8060005b85811015611d895784840389528151611d6a8582611d05565b9450611d7583611d19565b925060208a01995050600181019050611d51565b50829750879550505050505092915050565b60006080820190508181036000830152611db58187611beb565b90508181036020830152611dc98186611d26565b90508181036040830152611ddd8185611d26565b90508181036060830152611df18184611beb565b905095945050505050565b611e05816118ef565b82525050565b600082825260208201905092915050565b6000611e2782611c75565b611e318185611e0b565b9350611e41818560208601611c91565b611e4a81611cbb565b840191505092915050565b6000608082019050611e6a6000830187611dfc565b8181036020830152611e7c8186611e1c565b90508181036040830152611e908185611e1c565b9050611e9f6060830184611dfc565b95945050505050565b6000602082019050611ebd6000830184611dfc565b92915050565b611ecc81611972565b82525050565b6000602082019050611ee76000830184611ec3565b92915050565b6000604082019050611f026000830185611dfc565b611f0f6020830184611dfc565b9392505050565b60006020820190508181036000830152611f308184611beb565b905092915050565b7f4e6f7420647572696e672061637469766520656c656374696f6e000000000000600082015250565b6000611f6e601a83611e0b565b9150611f7982611f38565b602082019050919050565b60006020820190508181036000830152611f9d81611f61565b9050919050565b7f43616e646964617465206e6f7420666f756e6400000000000000000000000000600082015250565b6000611fda601383611e0b565b9150611fe582611fa4565b602082019050919050565b6000602082019050818103600083015261200981611fcd565b9050919050565b7f416c726561647920766f74656400000000000000000000000000000000000000600082015250565b6000612046600d83611e0b565b915061205182612010565b602082019050919050565b6000602082019050818103600083015261207581612039565b9050919050565b7f4e487b7100000000000000000000000000000000000000000000000000000000600052601160045260246000fd5b60006120b6826118ef565b91506120c1836118ef565b92508282019050808211156120d9576120d861207c565b5b92915050565b7f456c656374696f6e20616c726561647920737461727465640000000000000000600082015250565b6000612115601883611e0b565b9150612120826120df565b602082019050919050565b6000602082019050818103600083015261214481612108565b9050919050565b7f43616e64696461746520646f6573206e6f742065786973740000000000000000600082015250565b6000612181601883611e0b565b915061218c8261214b565b602082019050919050565b600060208201905081810360008301526121b081612174565b9050919050565b7f4e487b7100000000000000000000000000000000000000000000000000000000600052603260045260246000fd5b60006121f1826118ef565b91506121fc836118ef565b92508282039050818111156122145761221361207c565b5b92915050565b7f4e487b7100000000000000000000000000000000000000000000000000000000600052603160045260246000fd5b6000612254826118ef565b91507fffffffffffffffffffffffffffffffffffffffffffffffffffffffffffffffff82036122865761228561207c565b5b600182019050919050565b7f43616e646964617465206e616d65207265717569726564000000000000000000600082015250565b60006122c7601783611e0b565b91506122d282612291565b602082019050919050565b600060208201905081810360008301526122f6816122ba565b9050919050565b7f43616e64696461746520696d6167654349442072657175697265640000000000600082015250565b6000612333601b83611e0b565b915061233e826122fd565b602082019050919050565b6000602082019050818103600083015261236281612326565b9050919050565b7f4e487b7100000000000000000000000000000000000000000000000000000000600052604160045260246000fd5b7f4e487b7100000000000000000000000000000000000000000000000000000000600052602260045260246000fd5b600060028204905060018216806123df57607f821691505b6020821081036123f2576123f1612398565b5b50919050565b60008190508160005260206000209050919050565b60006020601f8301049050919050565b600082821b905092915050565b60006008830261245a7fffffffffffffffffffffffffffffffffffffffffffffffffffffffffffffffff8261241d565b612464868361241d565b95508019841693508086168417925050509392505050565b6000819050919050565b60006124a161249c612497846118ef565b61247c565b6118ef565b9050919050565b6000819050919050565b6124bb83612486565b6124cf6124c7826124a8565b84845461242a565b825550505050565b600090565b6124e46124d7565b6124ef8184846124b2565b505050565b5b81811015612513576125086000826124dc565b6001810190506124f5565b5050565b601f82111561255857612529816123f8565b6125328461240d565b81016020851015612541578190505b61255561254d8561240d565b8301826124f4565b50505b505050565b600082821c905092915050565b600061257b6000198460080261255d565b1980831691505092915050565b6000612594838361256a565b9150826002028217905092915050565b6125ad82611c75565b67ffffffffffffffff8111156125c6576125c5612369565b5b6125d082546123c7565b6125db828285612517565b600060209050601f83116001811461260e57600084156125fc578287015190505b6126068582612588565b86555061266e565b601f19841661261c866123f8565b60005b828110156126445784890151825560018201915060208501945060208101905061261f565b86831015612661578489015161265d601f89168261256a565b8355505b6001600288020188555050505b505050505050565b82818337600083830152505050565b60006126918385611e0b565b935061269e838584612676565b6126a783611cbb565b840190509392505050565b600060408201905081810360008301526126cd818688612685565b905081810360208301526126e2818486612685565b905095945050505050565b7f4e6f2063616e6469646174657320617661696c61626c65000000000000000000600082015250565b6000612723601783611e0b565b915061272e826126ed565b602082019050919050565b6000602082019050818103600083015261275281612716565b9050919050565b7f4475726174696f6e206d7573742062652067726561746572207468616e207a6560008201527f726f000000000000000000000000000000000000000000000000000000000000602082015250565b60006127b5602283611e0b565b91506127c082612759565b604082019050919050565b600060208201905081810360008301526127e4816127a8565b9050919050565b7f496e76616c696420616464726573730000000000000000000000000000000000600082015250565b6000612821600f83611e0b565b915061282c826127eb565b602082019050919050565b6000602082019050818103600083015261285081612814565b905091905056fea264697066735822122079d26f2c81392aab06027a8f24f68bf8218560f212bbc735075339b0fac972df64736f6c63430008140033",
  "linkReferences": {},
  "deployedLinkReferences": {}
}